{
  "abi": [
    {
      "inputs": [
        {
          "internalType": "string",
          "name": "_name",
          "type": "string"
        },
        {
          "internalType": "string",
          "name": "_symbol",
          "type": "string"
        },
        {
          "internalType": "string",
          "name": "_baseURI",
          "type": "string"
        },
        {
          "internalType": "address",
          "name": "_lensHub",
          "type": "address"
        },
        {
          "internalType": "uint256",
          "name": "_profileId",
          "type": "uint256"
        }
      ],
      "stateMutability": "nonpayable",
      "type": "constructor"
    },
    {
      "inputs": [],
      "name": "NotEnoughMatic",
      "type": "error"
    },
    {
      "inputs": [],
      "name": "NotEnoughNFTs",
      "type": "error"
    },
    {
      "inputs": [],
      "name": "NotYourNFT",
      "type": "error"
    },
    {
      "anonymous": false,
      "inputs": [
        {
          "indexed": true,
          "internalType": "address",
          "name": "owner",
          "type": "address"
        },
        {
          "indexed": true,
          "internalType": "address",
          "name": "spender",
          "type": "address"
        },
        {
          "indexed": true,
          "internalType": "uint256",
          "name": "id",
          "type": "uint256"
        }
      ],
      "name": "Approval",
      "type": "event"
    },
    {
      "anonymous": false,
      "inputs": [
        {
          "indexed": true,
          "internalType": "address",
          "name": "owner",
          "type": "address"
        },
        {
          "indexed": true,
          "internalType": "address",
          "name": "operator",
          "type": "address"
        },
        {
          "indexed": false,
          "internalType": "bool",
          "name": "approved",
          "type": "bool"
        }
      ],
      "name": "ApprovalForAll",
      "type": "event"
    },
    {
      "anonymous": false,
      "inputs": [
        {
          "indexed": false,
          "internalType": "uint256",
          "name": "id",
          "type": "uint256"
        }
      ],
      "name": "BurnedNFT",
      "type": "event"
    },
    {
      "anonymous": false,
      "inputs": [],
      "name": "MintedNFT",
      "type": "event"
    },
    {
      "anonymous": false,
      "inputs": [
        {
          "indexed": false,
          "internalType": "uint256",
          "name": "quantity",
          "type": "uint256"
        }
      ],
      "name": "MoneyWithdrawn",
      "type": "event"
    },
    {
      "anonymous": false,
      "inputs": [
        {
          "indexed": true,
          "internalType": "address",
          "name": "user",
          "type": "address"
        },
        {
          "indexed": true,
          "internalType": "address",
          "name": "newOwner",
          "type": "address"
        }
      ],
      "name": "OwnerUpdated",
      "type": "event"
    },
    {
      "anonymous": false,
      "inputs": [
        {
          "indexed": true,
          "internalType": "address",
          "name": "from",
          "type": "address"
        },
        {
          "indexed": true,
          "internalType": "address",
          "name": "to",
          "type": "address"
        },
        {
          "indexed": true,
          "internalType": "uint256",
          "name": "id",
          "type": "uint256"
        }
      ],
      "name": "Transfer",
      "type": "event"
    },
    {
      "inputs": [],
      "name": "MINT_PRICE",
      "outputs": [
        {
          "internalType": "uint256",
          "name": "",
          "type": "uint256"
        }
      ],
      "stateMutability": "view",
      "type": "function"
    },
    {
      "inputs": [],
      "name": "TOTAL_SUPPLY",
      "outputs": [
        {
          "internalType": "uint256",
          "name": "",
          "type": "uint256"
        }
      ],
      "stateMutability": "view",
      "type": "function"
    },
    {
      "inputs": [
        {
          "internalType": "address",
          "name": "spender",
          "type": "address"
        },
        {
          "internalType": "uint256",
          "name": "id",
          "type": "uint256"
        }
      ],
      "name": "approve",
      "outputs": [],
      "stateMutability": "nonpayable",
      "type": "function"
    },
    {
      "inputs": [
        {
          "internalType": "address",
          "name": "owner",
          "type": "address"
        }
      ],
      "name": "balanceOf",
      "outputs": [
        {
          "internalType": "uint256",
          "name": "",
          "type": "uint256"
        }
      ],
      "stateMutability": "view",
      "type": "function"
    },
    {
      "inputs": [
        {
          "internalType": "uint256",
          "name": "tokenId",
          "type": "uint256"
        },
        {
          "internalType": "string",
          "name": "contentURI",
          "type": "string"
        },
        {
          "internalType": "address",
          "name": "collectModule",
          "type": "address"
        },
        {
          "internalType": "bytes",
          "name": "collectModuleInitData",
          "type": "bytes"
        },
        {
          "internalType": "address",
          "name": "referenceModule",
          "type": "address"
        },
        {
          "internalType": "bytes",
          "name": "referenceModuleInitData",
          "type": "bytes"
        }
      ],
      "name": "burn",
      "outputs": [],
      "stateMutability": "nonpayable",
      "type": "function"
    },
    {
      "inputs": [
        {
          "internalType": "uint256",
          "name": "newProfileId",
          "type": "uint256"
        }
      ],
      "name": "changeProfileId",
      "outputs": [],
      "stateMutability": "nonpayable",
      "type": "function"
    },
    {
      "inputs": [],
      "name": "currentSupply",
      "outputs": [
        {
          "internalType": "uint256",
          "name": "",
          "type": "uint256"
        }
      ],
      "stateMutability": "view",
      "type": "function"
    },
    {
      "inputs": [
        {
          "internalType": "uint256",
          "name": "",
          "type": "uint256"
        }
      ],
      "name": "getApproved",
      "outputs": [
        {
          "internalType": "address",
          "name": "",
          "type": "address"
        }
      ],
      "stateMutability": "view",
      "type": "function"
    },
    {
      "inputs": [
        {
          "internalType": "address",
          "name": "",
          "type": "address"
        },
        {
          "internalType": "address",
          "name": "",
          "type": "address"
        }
      ],
      "name": "isApprovedForAll",
      "outputs": [
        {
          "internalType": "bool",
          "name": "",
          "type": "bool"
        }
      ],
      "stateMutability": "view",
      "type": "function"
    },
    {
      "inputs": [
        {
          "internalType": "address",
          "name": "recipient",
          "type": "address"
        },
        {
          "internalType": "uint256",
          "name": "amount",
          "type": "uint256"
        }
      ],
      "name": "mint",
      "outputs": [],
      "stateMutability": "payable",
      "type": "function"
    },
    {
      "inputs": [],
      "name": "name",
      "outputs": [
        {
          "internalType": "string",
          "name": "",
          "type": "string"
        }
      ],
      "stateMutability": "view",
      "type": "function"
    },
    {
      "inputs": [],
      "name": "owner",
      "outputs": [
        {
          "internalType": "address",
          "name": "",
          "type": "address"
        }
      ],
      "stateMutability": "view",
      "type": "function"
    },
    {
      "inputs": [
        {
          "internalType": "uint256",
          "name": "id",
          "type": "uint256"
        }
      ],
      "name": "ownerOf",
      "outputs": [
        {
          "internalType": "address",
          "name": "owner",
          "type": "address"
        }
      ],
      "stateMutability": "view",
      "type": "function"
    },
    {
      "inputs": [],
      "name": "profileId",
      "outputs": [
        {
          "internalType": "uint256",
          "name": "",
          "type": "uint256"
        }
      ],
      "stateMutability": "view",
      "type": "function"
    },
    {
      "inputs": [
        {
          "internalType": "address",
          "name": "from",
          "type": "address"
        },
        {
          "internalType": "address",
          "name": "to",
          "type": "address"
        },
        {
          "internalType": "uint256",
          "name": "id",
          "type": "uint256"
        }
      ],
      "name": "safeTransferFrom",
      "outputs": [],
      "stateMutability": "nonpayable",
      "type": "function"
    },
    {
      "inputs": [
        {
          "internalType": "address",
          "name": "from",
          "type": "address"
        },
        {
          "internalType": "address",
          "name": "to",
          "type": "address"
        },
        {
          "internalType": "uint256",
          "name": "id",
          "type": "uint256"
        },
        {
          "internalType": "bytes",
          "name": "data",
          "type": "bytes"
        }
      ],
      "name": "safeTransferFrom",
      "outputs": [],
      "stateMutability": "nonpayable",
      "type": "function"
    },
    {
      "inputs": [
        {
          "internalType": "address",
          "name": "operator",
          "type": "address"
        },
        {
          "internalType": "bool",
          "name": "approved",
          "type": "bool"
        }
      ],
      "name": "setApprovalForAll",
      "outputs": [],
      "stateMutability": "nonpayable",
      "type": "function"
    },
    {
      "inputs": [
        {
          "internalType": "address",
          "name": "newOwner",
          "type": "address"
        }
      ],
      "name": "setOwner",
      "outputs": [],
      "stateMutability": "nonpayable",
      "type": "function"
    },
    {
      "inputs": [
        {
          "internalType": "bytes4",
          "name": "interfaceId",
          "type": "bytes4"
        }
      ],
      "name": "supportsInterface",
      "outputs": [
        {
          "internalType": "bool",
          "name": "",
          "type": "bool"
        }
      ],
      "stateMutability": "view",
      "type": "function"
    },
    {
      "inputs": [],
      "name": "symbol",
      "outputs": [
        {
          "internalType": "string",
          "name": "",
          "type": "string"
        }
      ],
      "stateMutability": "view",
      "type": "function"
    },
    {
      "inputs": [
        {
          "internalType": "uint256",
          "name": "tokenId",
          "type": "uint256"
        }
      ],
      "name": "tokenURI",
      "outputs": [
        {
          "internalType": "string",
          "name": "",
          "type": "string"
        }
      ],
      "stateMutability": "view",
      "type": "function"
    },
    {
      "inputs": [
        {
          "internalType": "address",
          "name": "from",
          "type": "address"
        },
        {
          "internalType": "address",
          "name": "to",
          "type": "address"
        },
        {
          "internalType": "uint256",
          "name": "id",
          "type": "uint256"
        }
      ],
      "name": "transferFrom",
      "outputs": [],
      "stateMutability": "nonpayable",
      "type": "function"
    },
    {
      "inputs": [
        {
          "internalType": "uint256",
          "name": "quantity",
          "type": "uint256"
        },
        {
          "internalType": "address",
          "name": "recipent",
          "type": "address"
        }
      ],
      "name": "withdraw",
      "outputs": [],
      "stateMutability": "nonpayable",
      "type": "function"
    }
  ],
  "bytecode": {
    "object": "0x60806040523480156200001157600080fd5b5060405162001a6b38038062001a6b833981016040819052620000349162000270565b33858581600090805190602001906200004f929190620000fd565b50805162000065906001906020840190620000fd565b5050600680546001600160a01b0319166001600160a01b0384169081179091556040519091506000907f8292fce18fa69edf4db7b94ea2e58241df0ae57f97e0a6c9b29067028bf92d76908290a35060006008558251620000ce90600a906020860190620000fd565b50600780546001600160a01b0319166001600160a01b039390931692909217909155600955506200036c915050565b8280546200010b906200032f565b90600052602060002090601f0160209004810192826200012f57600085556200017a565b82601f106200014a57805160ff19168380011785556200017a565b828001600101855582156200017a579182015b828111156200017a5782518255916020019190600101906200015d565b50620001889291506200018c565b5090565b5b808211156200018857600081556001016200018d565b634e487b7160e01b600052604160045260246000fd5b600082601f830112620001cb57600080fd5b81516001600160401b0380821115620001e857620001e8620001a3565b604051601f8301601f19908116603f01168101908282118183101715620002135762000213620001a3565b816040528381526020925086838588010111156200023057600080fd5b600091505b8382101562000254578582018301518183018401529082019062000235565b83821115620002665760008385830101525b9695505050505050565b600080600080600060a086880312156200028957600080fd5b85516001600160401b0380821115620002a157600080fd5b620002af89838a01620001b9565b96506020880151915080821115620002c657600080fd5b620002d489838a01620001b9565b95506040880151915080821115620002eb57600080fd5b50620002fa88828901620001b9565b606088015190945090506001600160a01b03811681146200031a57600080fd5b80925050608086015190509295509295909350565b600181811c908216806200034457607f821691505b602082108114156200036657634e487b7160e01b600052602260045260246000fd5b50919050565b6116ef806200037c6000396000f3fe60806040526004361061013f5760003560e01c806362f2f502116100b657806395d89b411161006f57806395d89b411461038e578063a22cb465146103a3578063b88d4fde146103c3578063c002d23d146103e3578063c87b56dd146103f8578063e985e9c51461041857600080fd5b806362f2f502146102e25780636352211e1461030257806370a0823114610322578063771282f6146103425780638da5cb5b14610358578063902d55a51461037857600080fd5b8063095ea7b311610108578063095ea7b31461022f57806313af40351461024f57806323b872dd1461026f57806340c10f191461028f57806342842e0e146102a25780635775016c146102c257600080fd5b8062f714ce1461014457806301ffc9a71461016657806306fdde031461019b578063081812fc146101bd57806308386eba1461020b575b600080fd5b34801561015057600080fd5b5061016461015f366004611102565b610453565b005b34801561017257600080fd5b50610186610181366004611147565b6104c7565b60405190151581526020015b60405180910390f35b3480156101a757600080fd5b506101b0610519565b60405161019291906111b8565b3480156101c957600080fd5b506101f36101d83660046111cb565b6004602052600090815260409020546001600160a01b031681565b6040516001600160a01b039091168152602001610192565b34801561021757600080fd5b5061022160095481565b604051908152602001610192565b34801561023b57600080fd5b5061016461024a3660046111e4565b6105a7565b34801561025b57600080fd5b5061016461026a36600461120e565b610689565b34801561027b57600080fd5b5061016461028a366004611229565b6106ff565b61016461029d3660046111e4565b6108c6565b3480156102ae57600080fd5b506101646102bd366004611229565b61097c565b3480156102ce57600080fd5b506101646102dd3660046111cb565b610a74565b3480156102ee57600080fd5b506101646102fd3660046112ae565b610aa3565b34801561030e57600080fd5b506101f361031d3660046111cb565b610c7b565b34801561032e57600080fd5b5061022161033d36600461120e565b610cd2565b34801561034e57600080fd5b5061022160085481565b34801561036457600080fd5b506006546101f3906001600160a01b031681565b34801561038457600080fd5b5061022161271081565b34801561039a57600080fd5b506101b0610d35565b3480156103af57600080fd5b506101646103be36600461137b565b610d42565b3480156103cf57600080fd5b506101646103de3660046113b7565b610dae565b3480156103ef57600080fd5b50610221600081565b34801561040457600080fd5b506101b06104133660046111cb565b610e96565b34801561042457600080fd5b50610186610433366004611426565b600560209081526000928352604080842090915290825290205460ff1681565b6006546001600160a01b031633146104865760405162461bcd60e51b815260040161047d90611450565b60405180910390fd5b6104908183610ec2565b6040518281527fe81a0468acd0d211b80cc5d4a8d51c48b41d72b669c572e52feba281cb92df539060200160405180910390a15050565b60006301ffc9a760e01b6001600160e01b0319831614806104f857506380ac58cd60e01b6001600160e01b03198316145b806105135750635b5e139f60e01b6001600160e01b03198316145b92915050565b6000805461052690611476565b80601f016020809104026020016040519081016040528092919081815260200182805461055290611476565b801561059f5780601f106105745761010080835404028352916020019161059f565b820191906000526020600020905b81548152906001019060200180831161058257829003601f168201915b505050505081565b6000818152600260205260409020546001600160a01b0316338114806105f057506001600160a01b038116600090815260056020908152604080832033845290915290205460ff165b61062d5760405162461bcd60e51b815260206004820152600e60248201526d1393d517d055551213d49256915160921b604482015260640161047d565b60008281526004602052604080822080546001600160a01b0319166001600160a01b0387811691821790925591518593918516917f8c5be1e5ebec7d5bd14f71427d1e84f3dd0314c0f7b2291e5b200ac8c7c3b92591a4505050565b6006546001600160a01b031633146106b35760405162461bcd60e51b815260040161047d90611450565b600680546001600160a01b0319166001600160a01b03831690811790915560405133907f8292fce18fa69edf4db7b94ea2e58241df0ae57f97e0a6c9b29067028bf92d7690600090a350565b6000818152600260205260409020546001600160a01b038481169116146107555760405162461bcd60e51b815260206004820152600a60248201526957524f4e475f46524f4d60b01b604482015260640161047d565b6001600160a01b03821661079f5760405162461bcd60e51b81526020600482015260116024820152701253959053125117d49150d25412515395607a1b604482015260640161047d565b336001600160a01b03841614806107d957506001600160a01b038316600090815260056020908152604080832033845290915290205460ff165b806107fa57506000818152600460205260409020546001600160a01b031633145b6108375760405162461bcd60e51b815260206004820152600e60248201526d1393d517d055551213d49256915160921b604482015260640161047d565b6001600160a01b0380841660008181526003602090815260408083208054600019019055938616808352848320805460010190558583526002825284832080546001600160a01b03199081168317909155600490925284832080549092169091559251849392917fddf252ad1be2c89b69c2b068fc378daa952ba7f163c4a11628f55a4df523b3ef91a4505050565b612710816008546108d791906114c7565b11156108f65760405163e1ace8ad60e01b815260040160405180910390fd5b6109018160006114df565b3410156109215760405163d6b6ab9960e01b815260040160405180910390fd5b60005b818161ffff16101561094e576008805460018101909155610946908490610f13565b600101610924565b506040517f3b2fc847fcef98dfe09859a439682bba36f20b6269b394df0c8ddb92ba07052b90600090a15050565b6109878383836106ff565b6001600160a01b0382163b1580610a305750604051630a85bd0160e11b8082523360048301526001600160a01b03858116602484015260448301849052608060648401526000608484015290919084169063150b7a029060a4016020604051808303816000875af1158015610a00573d6000803e3d6000fd5b505050506040513d601f19601f82011682018060405250810190610a2491906114fe565b6001600160e01b031916145b610a6f5760405162461bcd60e51b815260206004820152601060248201526f155394d0519157d49150d2541251539560821b604482015260640161047d565b505050565b6006546001600160a01b03163314610a9e5760405162461bcd60e51b815260040161047d90611450565b600955565b610aac89610c7b565b6001600160a01b0316336001600160a01b031614610add5760405163255a74af60e11b815260040160405180910390fd5b610ae68961101e565b60006040518060c0016040528060095481526020018a8a8080601f0160208091040260200160405190810160405280939291908181526020018383808284376000920191909152505050908252506001600160a01b03891660208083019190915260408051601f8a0183900483028101830182528981529201919089908990819084018382808284376000920191909152505050908252506001600160a01b03861660208083019190915260408051601f87018390048302810183018252868152920191908690869081908401838280828437600092019190915250505091525060075460405163963ff14160e01b81529192506001600160a01b03169063963ff14190610bf890849060040161151b565b6020604051808303816000875af1158015610c17573d6000803e3d6000fd5b505050506040513d601f19601f82011682018060405250810190610c3b91906115ad565b506040518a81527f13889bb0a6b63a6f3c1862927c7cceb6214b294a1effefbe38a9af56fa3438429060200160405180910390a150505050505050505050565b6000818152600260205260409020546001600160a01b031680610ccd5760405162461bcd60e51b815260206004820152600a6024820152691393d517d3525395115160b21b604482015260640161047d565b919050565b60006001600160a01b038216610d195760405162461bcd60e51b815260206004820152600c60248201526b5a45524f5f4144445245535360a01b604482015260640161047d565b506001600160a01b031660009081526003602052604090205490565b6001805461052690611476565b3360008181526005602090815260408083206001600160a01b03871680855290835292819020805460ff191686151590811790915590519081529192917f17307eab39ab6107e8899845ad3d59bd9653f200f220920489ca2b5937696c31910160405180910390a35050565b610db98585856106ff565b6001600160a01b0384163b1580610e505750604051630a85bd0160e11b808252906001600160a01b0386169063150b7a0290610e019033908a908990899089906004016115c6565b6020604051808303816000875af1158015610e20573d6000803e3d6000fd5b505050506040513d601f19601f82011682018060405250810190610e4491906114fe565b6001600160e01b031916145b610e8f5760405162461bcd60e51b815260206004820152601060248201526f155394d0519157d49150d2541251539560821b604482015260640161047d565b5050505050565b6060600a82604051602001610eac92919061161a565b6040516020818303038152906040529050919050565b600080600080600085875af1905080610a6f5760405162461bcd60e51b815260206004820152601360248201527211551217d514905394d1915497d19052531151606a1b604482015260640161047d565b6001600160a01b038216610f5d5760405162461bcd60e51b81526020600482015260116024820152701253959053125117d49150d25412515395607a1b604482015260640161047d565b6000818152600260205260409020546001600160a01b031615610fb35760405162461bcd60e51b815260206004820152600e60248201526d1053149150511657d3525395115160921b604482015260640161047d565b6001600160a01b038216600081815260036020908152604080832080546001019055848352600290915280822080546001600160a01b0319168417905551839291907fddf252ad1be2c89b69c2b068fc378daa952ba7f163c4a11628f55a4df523b3ef908290a45050565b6000818152600260205260409020546001600160a01b0316806110705760405162461bcd60e51b815260206004820152600a6024820152691393d517d3525395115160b21b604482015260640161047d565b6001600160a01b038116600081815260036020908152604080832080546000190190558583526002825280832080546001600160a01b031990811690915560049092528083208054909216909155518492907fddf252ad1be2c89b69c2b068fc378daa952ba7f163c4a11628f55a4df523b3ef908390a45050565b80356001600160a01b0381168114610ccd57600080fd5b6000806040838503121561111557600080fd5b82359150611125602084016110eb565b90509250929050565b6001600160e01b03198116811461114457600080fd5b50565b60006020828403121561115957600080fd5b81356111648161112e565b9392505050565b6000815180845260005b8181101561119157602081850181015186830182015201611175565b818111156111a3576000602083870101525b50601f01601f19169290920160200192915050565b602081526000611164602083018461116b565b6000602082840312156111dd57600080fd5b5035919050565b600080604083850312156111f757600080fd5b611200836110eb565b946020939093013593505050565b60006020828403121561122057600080fd5b611164826110eb565b60008060006060848603121561123e57600080fd5b611247846110eb565b9250611255602085016110eb565b9150604084013590509250925092565b60008083601f84011261127757600080fd5b50813567ffffffffffffffff81111561128f57600080fd5b6020830191508360208285010111156112a757600080fd5b9250929050565b600080600080600080600080600060c08a8c0312156112cc57600080fd5b8935985060208a013567ffffffffffffffff808211156112eb57600080fd5b6112f78d838e01611265565b909a50985088915061130b60408d016110eb565b975060608c013591508082111561132157600080fd5b61132d8d838e01611265565b909750955085915061134160808d016110eb565b945060a08c013591508082111561135757600080fd5b506113648c828d01611265565b915080935050809150509295985092959850929598565b6000806040838503121561138e57600080fd5b611397836110eb565b9150602083013580151581146113ac57600080fd5b809150509250929050565b6000806000806000608086880312156113cf57600080fd5b6113d8866110eb565b94506113e6602087016110eb565b935060408601359250606086013567ffffffffffffffff81111561140957600080fd5b61141588828901611265565b969995985093965092949392505050565b6000806040838503121561143957600080fd5b611442836110eb565b9150611125602084016110eb565b6020808252600c908201526b15539055551213d49256915160a21b604082015260600190565b600181811c9082168061148a57607f821691505b602082108114156114ab57634e487b7160e01b600052602260045260246000fd5b50919050565b634e487b7160e01b600052601160045260246000fd5b600082198211156114da576114da6114b1565b500190565b60008160001904831182151516156114f9576114f96114b1565b500290565b60006020828403121561151057600080fd5b81516111648161112e565b60208152815160208201526000602083015160c0604084015261154160e084018261116b565b60408501516001600160a01b03908116606086810191909152860151858303601f19908101608088015292935091611579848461116b565b93508160808801511660a087015260a08701519250808685030160c087015250506115a4828261116b565b95945050505050565b6000602082840312156115bf57600080fd5b5051919050565b6001600160a01b038681168252851660208201526040810184905260806060820181905281018290526000828460a0840137600060a0848401015260a0601f19601f85011683010190509695505050505050565b600080845481600182811c91508083168061163657607f831692505b602080841082141561165657634e487b7160e01b86526022600452602486fd5b81801561166a576001811461167b576116a8565b60ff198616895284890196506116a8565b60008b81526020902060005b868110156116a05781548b820152908501908301611687565b505084890196505b50978552505050930194935050505056fea2646970667358221220e2b00de725f04229f41c89a12b1427112f41fdceb1a5778e29e379484fa55cc064736f6c634300080a0033",
    "linkReferences": {}
  },
  "methodIdentifiers": {
    "MINT_PRICE()": "c002d23d",
    "TOTAL_SUPPLY()": "902d55a5",
    "approve(address,uint256)": "095ea7b3",
    "balanceOf(address)": "70a08231",
    "burn(uint256,string,address,bytes,address,bytes)": "62f2f502",
    "changeProfileId(uint256)": "5775016c",
    "currentSupply()": "771282f6",
    "getApproved(uint256)": "081812fc",
    "isApprovedForAll(address,address)": "e985e9c5",
    "mint(address,uint256)": "40c10f19",
    "name()": "06fdde03",
    "owner()": "8da5cb5b",
    "ownerOf(uint256)": "6352211e",
    "profileId()": "08386eba",
    "safeTransferFrom(address,address,uint256)": "42842e0e",
    "safeTransferFrom(address,address,uint256,bytes)": "b88d4fde",
    "setApprovalForAll(address,bool)": "a22cb465",
    "setOwner(address)": "13af4035",
    "supportsInterface(bytes4)": "01ffc9a7",
    "symbol()": "95d89b41",
    "tokenURI(uint256)": "c87b56dd",
    "transferFrom(address,address,uint256)": "23b872dd",
    "withdraw(uint256,address)": "00f714ce"
  },
  "id": 12
}